:020000040000FA
:100000000C94A2000C945F100C9438100C94CA004D
:100010000C94CA000C94CA000C942E110C94CA00C3
:100020000C9486100C94CA000C94CA000C94CA005C
:100030000C94CA000C94CA000C94CA000C94CA0018
:100040000C94EE0F0C94CA000C94BC0F0C94960FF9
:100050000C94CA000C94CA000C94CA000C94CA00F8
:100060000C94CA000C94CA00322E332E320A00209F
:100070007C5F5C2F602C0A0702200220B2871003ED
:10008000400120002402221002220202200222004B
:100090002220020220222710134101010103222005
:1000A0003040203052034022140203105224022117
:1000B000710100101012101222101002240101030D
:1000C00022030020010100322037121001213226C4
:1000D000012840322212101212224322241210014F
:1000E000222470C122240F0F0000000024002700EA
:1000F0002A0000000000250028002B000000000856
:1001000000020100000304070000000000000000DE
:100110000000000023002600290004040404040455
:1001200004040202020202020303030303030102A6
:100130000408102040800102040810200102040875
:1001400010204D1111241FBECFEFD8E0DEBFCDBF70
:1001500012E0A0E0B1E0EAEBFAE202C005900D92F5
:10016000A031B107D9F724E0A0E1B2E001C01D92AF
:10017000A33BB207E1F710E0C2EAD0E004C0219748
:10018000FE010E944615C13AD107C9F70E94041228
:100190000C945B150C940000EBE3F2E0A089B189AC
:1001A00082E08C93A485B5851C92A685B7858FECDB
:1001B0008C93108EA489B58986E08C93A289B3892B
:1001C0008C9180618C93A289B3898C9188608C9387
:1001D000A289B3898C9180688C930288F389E02D81
:1001E00080818F7D80830895942FE1E7F4E0309142
:1001F000370231838283668325834481487F492B7C
:10020000477E4483CF010895CF92DF92EF92FF9211
:100210001F93CF93DF93EC018E818C3009F459C08A
:1002200038F48B30E1F060E070E080EC9FE749C08B
:1002300085518230C0F71A81612F70E0762F6627D2
:1002400066277F778B81682B90E080E00E944C13BB
:100250002DEC3CEC4CEC5DE30E94891354C06A81A8
:1002600070E090E080E00E944C136B017C01CB8138
:10027000C7FF0AC0AC019B0160E070E080E89FEB23
:100280000E94A3146B017C01CF706C2F70E090E092
:1002900080E00E944E132DEC3CEC4CEC5DE30E94A0
:1002A0008913A70196010E94A41426E636E646EEBD
:1002B0005FE30E94891320E030E040E052E40E94B6
:1002C000A414DF91CF911F91FF90EF90DF90CF901A
:1002D00008951A81612F70E090E080E00E944C1335
:1002E0006B017C016B816F7070E090E080E00E9498
:1002F0004E132DEC3CEC4CEC5DE30E948913A701FE
:1003000096010E94A41417FFD0CF9058CECFAF9281
:10031000BF92CF92DF92EF92FF920F931F93CF93F2
:10032000DF936C017B018B01040F151FEB015E0154
:10033000AE18BF08C017D10759F06991D601ED91E9
:10034000FC910190F081E02DC6010995892B79F788
:10035000C501DF91CF911F910F91FF90EF90DF903A
:10036000CF90BF90AF900895FC01538D448D252F01
:1003700030E0842F90E0821B930B541710F0CF963F
:10038000089501970895FC01918D828D981761F071
:10039000A28DAE0FBF2FB11D5D968C91928D9F5F88
:1003A0009F73928F90E008958FEF9FEF0895FC0167
:1003B000918D828D981731F0828DE80FF11D858D1A
:1003C00090E008958FEF9FEF0895FC01918D228DAD
:1003D000892F90E0805C9F4F821B91098F73992732
:1003E00008958BE392E00E94E50121E0892B09F456
:1003F00020E0822F0895FC01A48DA80FB92FB11D14
:10040000A35ABF4F2C91848D90E001968F7399274A
:10041000848FA689B7892C93A089B1898C91837028
:1004200080648C93938D848D981306C00288F38921
:10043000E02D80818F7D80830895EF92FF920F934E
:100440001F93CF93DF93EC0181E0888F9B8D8C8D80
:1004500098131AC0E889F989808185FF15C09FB774
:10046000F894EE89FF896083E889F9898081837037
:10047000806480839FBF81E090E0DF91CF911F91E6
:100480000F91FF90EF900895F62E0B8D10E00F5F07
:100490001F4F0F731127E02E8C8D8E110CC00FB6DD
:1004A00007FCFACFE889F989808185FFF5CFCE0175
:1004B0000E94FB01F1CFEB8DEC0FFD2FF11DE35AF4
:1004C000FF4FF0829FB7F8940B8FEA89FB898081F8
:1004D0008062CFCFCF93DF93EC01888D8823B9F072
:1004E000AA89BB89E889F9898C9185FD03C080813F
:1004F00086FD0DC00FB607FCF7CF8C9185FFF2CFBC
:10050000808185FFEDCFCE010E94FB01E9CFDF9115
:10051000CF91089580E090E0892B29F00E94F101AD
:1005200081110C940000089590E0FC01E450FF4F0D
:100530002491FC01E25DFE4F3491FC01E65EFE4F2A
:10054000E491EE23C9F0222339F0233001F1A8F41D
:10055000213019F1223029F1F0E0EE0FFF1FEE50AB
:10056000FF4FA591B4918FB7F894EC91611126C01B
:1005700030953E233C938FBF08952730A9F0283053
:10058000C9F0243049F7809180008F7D03C08091AD
:1005900080008F7780938000DFCF84B58F7784BD14
:1005A000DBCF84B58F7DFBCF8091B0008F778093B8
:1005B000B000D2CF8091B0008F7DF9CF3E2BDACF43
:1005C000CF93DF9390E0FC01E25DFE4F2491865EC5
:1005D0009E4FFC0184918823D1F090E0880F991FF1
:1005E000FC01E851FF4FA591B491FC01EE50FF4F83
:1005F000C591D491623071F49FB7F8943C91822FE9
:10060000809583238C93E8812E2B28839FBFDF91D5
:10061000CF9108958FB7F894EC912E2B2C938FBF28
:10062000F6CF3FB7F89480912C0290912D02A091C3
:100630002E02B0912F0226B5A89B05C02F3F19F0BE
:100640000196A11DB11D3FBFBA2FA92F982F882752
:10065000BC01CD01620F711D811D911D42E0660F2D
:10066000771F881F991F4A95D1F708958F929F92FF
:10067000AF92BF92CF92DF92EF92FF926B017C011B
:100680000E9411034B015C010E9411036819790952
:100690008A099B096C157D058E059F05A8F3FF90BF
:1006A000EF90DF90CF90BF90AF909F908F90089584
:1006B0008F929F92AF92BF92CF92DF92EF92FF9272
:1006C0006B017C010E9411034B015C01C114D10438
:1006D000E104F104B9F00E941103681979098A094B
:1006E0009B09683E73408105910580F321E0C21AA1
:1006F000D108E108F10888EE880E83E0981EA11C5D
:10070000B11CE4CFFF90EF90DF90CF90BF90AF90FF
:100710009F908F9008952FB7F89460912802709160
:10072000290280912A0290912B022FBF08950895EB
:10073000CF92DF92EF92FF92CF93DF93DC01179677
:10074000CC911797D0E06111DC2F18962C91189757
:1007500030E0220F331F205F3E4F50E040E0F901B0
:1007600085919491FC01F080BA0190E080E0EF2D3A
:10077000EC23ED1310C04F5F5F4F1D96CD90DD90C1
:10078000ED90FC9050976C157D058E059F0538F314
:100790006FEF7FEFCB01DF91CF91FF90EF90DF9074
:1007A000CF9008958F929F92AF92BF92CF92DF9297
:1007B000EF92FF920F931F93CF93DF93CDB7DEB7E6
:1007C000C054D1400FB6F894DEBF0FBECDBF8C0130
:1007D0000E948B03F801C184D284E384F4849B01DA
:1007E000AC012C193D094E095F0969017A0130ED10
:1007F000C31637E0D306E104F104A8F48189C05C94
:10080000DE4F0FB6F894DEBF0FBECDBFDF91CF91A4
:100810001F910F91FF90EF90DF90CF90BF90AF901E
:100820009F908F9008956187728783879487148241
:10083000138212821182108262E085810E94E0029E
:1008400061E070E080E090E00E94580361E0F80110
:1008500085810E94E00260E0F80185810E94940297
:10086000F80186818551823028F58BE291E101976C
:10087000F1F762E0F80185810E94E002F8018289C7
:1008800090E08230910538F0880F991F880F991FEA
:1008900005970197F1F7F89460E0C8010E9498036A
:1008A0006F3F7F4F8F4F9F4F61F4F801118A78940B
:1008B00080E0A5CF64E170E080E090E00E94580302
:1008C000D8CF61E0C8010E9498036F3F7F4F8F4FE0
:1008D0009F4F59F39E012F5F3F4F79015E013FEB20
:1008E000A31A3EEFB30A670160E0C8010E949803B3
:1008F000F601608371838283938361E0C8010E9463
:100900009803F6016483758386839783F8E0CF0E9E
:10091000D11CCA14DB0441F7789430E020E0F701E1
:1009200080809180A280B3804481558166817781E7
:10093000FFEF8F169F06AF06BF0631F04F3F8FEFD8
:1009400058076807780719F4F801118AB1CFF9013F
:1009500083E0F595E7958A95E1F7E00FF11F808137
:10096000880F84169506A606B706F0F080832F5FE1
:100970003F4FF8E0EF0EF11C2832310581F6F80107
:10098000448120818181280F3327331F8281280FE2
:10099000311D8381820F932F911D992748171906C6
:1009A00099F681E0818B2BCF8160E0CF982F8091E9
:1009B0002E04882379F080912D04992329F061E099
:1009C000811105C02D9A0895882319F060E00C94D8
:1009D00094022D9808954F925F926F927F928F921A
:1009E0009F92AF92BF92CF92DF92EF92FF926C01F3
:1009F00081E00E94D6040E9411032B013C015C019E
:100A00004B01F12CE12CF89461E0809130020E94BE
:100A1000940280913302909134028230910538F033
:100A2000880F991F880F991F05970197F1F760E0CC
:100A3000809130020E9494027894809131029091CA
:100A40003202880E991EA11CB11C0E941103681568
:100A500079058A059B05C8F3641975098609970904
:100A60006C157D058E059F0570F280E0FF90EF907C
:100A7000DF90CF90BF90AF909F908F907F906F90BE
:100A80005F904F900C94D604FC0183818770806145
:100A9000838384818F718064848370876783CF01AF
:100AA0000895FC01838187708860838384818F71BE
:100AB000806284836783CF010895E0911A02F091E8
:100AC0001B02309721F00280F381E02D09940895F4
:100AD0000F931F930E948B0300911C0210911D0223
:100AE00020911E0230911F02601B710B820B930B31
:100AF0001F910F9108959C0180911A0290911B0201
:100B000082179307F1F0909124029F719093240231
:100B100030931B0220931A02E0911A02F0911B02FB
:100B2000309721F00190F081E02D09950E948B0310
:100B300060931C0270931D0280931E0290931F020B
:100B4000089580912402805E80932402E5CF0F9364
:100B50001F930E946805209125022077203779F0A5
:100B600000E117E220E030E00617170728073907F1
:100B700058F48FE191E01F910F910C947B0500E6F2
:100B80001AEE20E030E0F0CF1F910F910895809190
:100B900025028F70863020F089E191E00C947B056E
:100BA000089580912402846080932402809125021C
:100BB000807880932502E0911702F0911802309717
:100BC00009F009940895CF93C0912602CF3FA1F078
:100BD0000E948B0360932002709321028093220273
:100BE0009093230280913902C813C093390285E1A2
:100BF00091E0CF910C947B050E946805613D7740A0
:100C00008105910568F080912402803618F481E115
:100C100091E0EFCF877F8093240289E191E0E9CFD3
:100C2000CF910895809137028F3F21F081E191E0CB
:100C30000C947B050E946805613D77408105910514
:100C400050F080912402803618F48DE091E0F0CFCE
:100C500089E091E0EDCF08950E946805613D7740FD
:100C60008105910520F48091240281FF17C08091B5
:100C700038028F3F49F0809124028E7F80932402B6
:100C80008DE091E00C947B0580912402803618F46D
:100C900089E191E0F7CF89E091E0F4CF08958EBD2E
:100CA00000000DB407FEFDCF8EB508958091960427
:100CB000829586958770813019F480919904089502
:100CC000811105C089E994E00E94EA12089580E04C
:100CD0000895FC0101900020E9F73197AF01481B0E
:100CE000590BBC018BE392E00C9487018F929F9289
:100CF000AF92BF920F931F93CF93DF93CDB7DEB721
:100D0000A1970FB6F894DEBF0FBECDBF19A2423037
:100D100008F44AE08E010F5D1F4F842E912CB12CF8
:100D2000A12CA50194010E948114E62FB901CA01EA
:100D3000EA30F4F4E05DD801EE938D01232B242BEF
:100D4000252B79F790E080E0109719F0CD010E94F3
:100D50006906A1960FB6F894DEBF0FBECDBFDF9136
:100D6000CF911F910F91BF90AF909F908F9008955A
:100D7000E95CE1CFCF92DF92EF92FF92CF93DF93C6
:100D80006B017C016DE28BE392E00E941D02EC019D
:100D900066277727CB016C197D098E099F094AE0E8
:100DA0000E9476068C0F9D1FDF91CF91FF90EF90F0
:100DB000DF90CF900895CF93DF930E946906EC01F6
:100DC00089E391E00E9469068C0F9D1FDF91CF910E
:100DD0000895CF92DF92EF92FF92CF93C12CDD2442
:100DE000DA94E82EF82EF0948AE190E090933202A3
:100DF0008093310285E090E0909334028093330237
:100E000061E0809130020E94E00260E08091300257
:100E10000E94940280E00E94D60480E093E20E9447
:100E2000EB0460E871E180E090E00E943603C0E2EC
:100E300080E392E0C0FE17C00E94EB0460E976E018
:100E400080E090E00E943603F694E794D794C7942C
:100E5000C15071F780E392E0CF91FF90EF90DF9067
:100E6000CF900C94EB040E94EB0460E372E080E00E
:100E700090E0E8CFCF93DF93BC01990F880B990BDB
:100E800097FF0CC00E94BA06EC0189E391E00E9432
:100E900069068C0F9D1FDF91CF9108954AE00E9453
:100EA0007606F2CFE4E2F2E08081877F8F7E808356
:100EB000109220021092210210922202109223021C
:100EC00044E050E070E060E087E392E00C94471467
:100ED0000F931F93CF93DF938C0180E06115710511
:100EE00051F0EB0109900020E9F721978C2F861B28
:100EF0008A3108F089E1F801C381C770F8E08F9F5B
:100F0000C0011124C82BF801C38384818F718483AD
:100F1000C695C695C695CA3108F0C9E1D0E0AE01C4
:100F2000C80107960E944C15C00FD11F1F82C8012F
:100F3000DF91CF911F910F910895BF92CF92DF92D1
:100F4000EF92FF920F931F93CF93DF937B01042FB8
:100F5000B22E91E59CBD91E09DBD2A98E3E2F0E0C0
:100F60003197F1F70E944F06182FE7010150A8F0C2
:100F7000BB2051F08FEF0E944F06182FE114F104AF
:100F8000A9F388832196F2CF6E018FEFC81AD80A91
:100F900088810E944F06E601E9CF2A9A83E290E019
:100FA0000197F1F7812FDF91CF911F910F91FF9062
:100FB000EF90DF90CF90BF900895CF93DF931F9273
:100FC000CDB7DEB7698320E041E0BE016F5F7F4FA0
:100FD0000E949D070F90DF91CF9108958091250287
:100FE000982F9077903759F0982F92959F709F5F28
:100FF00097709295907F8F78892B809325028091AE
:1010000024028B7F8F7E8093240229986CE080E2FB
:101010000C94DD076FE080E20E94DD07609108011B
:101020006F3F19F08AE20E94DD07299A089521E0B6
:1010300041E070E060E00C949D0720E040E070E04B
:1010400060E00C949D07FF920F931F93CF93DF9363
:1010500090913702FB0190834381C0E242FD08C0BA
:101060004695469546954A3108F049E1C7E0C40FD8
:1010700090913A02D1E090FD03C08F3F09F0D0E09B
:101080006115710509F44CC08B01F82E299883E095
:1010900092E00197F1F76EE080E20E94DD078BE8B5
:1010A00091E00197F1F76F2D8AE20E94DD076F2D25
:1010B00080E30E94DD0781EE0E941D08DD2321F000
:1010C00060E584E20E94DD0720E04C2FB80180EA51
:1010D0000E949D07299A10E000E08FEF0E941D08F2
:1010E000807339F40F3F100721F0A8950F5F1F4F51
:1010F000F4CF299860E787E20E94DD07C82F84FFBC
:1011000003C081EE0E941D08DD2321F06FE584E21B
:101110000E94DD070E940A08C5FF03C0D1E001C09C
:10112000D0E08D2FDF91CF911F910F91FF90089507
:101130000F931F93CF938C01FC0182819091240225
:1011400090FF04C08F3F51F5CFEF04C0811116C04E
:10115000C0913802B8018C2F0E9423089091380268
:101160009C1313C090912502811113C021E0290F17
:101170002F70907F922B9093250207C08F3F21F311
:10118000B8010E942308882319F3CF911F910F9172
:101190000895907F9093250281E0F7CF80E0F5CF0E
:1011A0002091240222FD0C94980880E00895FC010F
:1011B0008091370281839481907F916094838091A4
:1011C000360280FF03C0CF010C94D00880E0089560
:1011D000CF93C82F262F50E040E0682F80E00E9478
:1011E000F4006CE371E0CF3F11F06BE371E00E941B
:1011F0006807CF910C94D0082BE043E050E06FEFEC
:1012000080E00E94F40062E471E00E9468070E949E
:10121000D0082CE043E050E06FEF80E00E94F40043
:101220006FE471E00E9468070E94D00866E070E0F9
:1012300081E00E94E80867E070E082E00E94E80830
:1012400066E070E080E00E94E80863E170E083E01F
:101250000C94E8082FE043E050E06FEF80E00E943C
:10126000F4006BE371E00E946807E1E7F4E083813A
:1012700087708061838384818F71806C848381E037
:1012800087831086CF010E94D0088FE00E94270B31
:1012900061E170E08FEF0E94E80826E043E050E053
:1012A0006FEF80E00E94F400609138020E945105C7
:1012B0000E94D00886E00E94270B0C94FC088F92B5
:1012C0009F92AF92BF92CF92DF92EF92FF920F93D5
:1012D0001F93CF93DF9300D01F92CDB7DEB726E0E8
:1012E0002B8300E010E0CC24CA9482E0D82E83E067
:1012F000E82EFD2C87E10E94170880FD92C18B81AA
:1013000081508B83882309F48CC121E041E070E097
:1013100060E080E60E949D078983813220F082EEA2
:101320000E941D08198221E0498162E974E081E68A
:101330000E949D0760E487E20E94DD07809195048A
:10134000982F93709230B1F6E82FE695E695E695E2
:10135000EA3108F0E9E182FF67C089E1895F99819C
:101360009813C8CF80919604282F277029839091D5
:1013700097049A83B09093042091920490919404DE
:101380003091250230683093250230913702931353
:101390001CC1F0E0EE56FB4F178283FF15C021E21F
:1013A000E2E9F4E0A1E7B4E001900D922A95E1F7BB
:1013B000877E80618093750490937204B092730469
:1013C00081E794E00E94D0089091960494FDF5C0C6
:1013D0002981233009F0F1C08091970421EF280F73
:1013E000233008F487CF2A81243009F483CF2830B2
:1013F000E9F480912402898380FF7CCF0E94560605
:101400008F3F09F477CF8F5F8F3F09F473CF9091AF
:101410003902891708F06ECF998191FD6BCF8093C7
:101420003902B092380266CF8E2F98CF2A812831A8
:1014300059F429E143E050E06FEF8B2D0E94F40056
:1014400061E00E94510520C02A81293161F4809118
:10145000240283FF4FCF877F809324020E94560689
:101460008093260247CF2A812E3109F443CF2D31B4
:1014700071F42FE143E050E06FEF80E00E94F40050
:1014800060E07FEF0E9444050E94980833CF2091CE
:101490009304211197C08D3059F488E198E00FB67C
:1014A000F894A895809360000FBE90936000FFCFE2
:1014B0008B3169F40E94560691E0811101C090E0E1
:1014C0008091360290FB80F98093360213CF8630EC
:1014D00099F49091990481E0992319F09D3409F0D1
:1014E00080E08093350241E050E063E071E085E305
:1014F00092E00E945F14FECE833119F40E942A0903
:10150000F9CE8231E1F40E9468054B015C0126E1CD
:1015100043E050E06FEF80E00E94F400FC01838123
:1015200087708062838384818F71806A84838782DD
:101530009086A186B286CF010E94D008DBCE823091
:10154000A9F422E043E050E06FEF80E00E94F40055
:10155000FC01838187708062838384818F71806ABC
:101560008483C782D086E186F286E5CF8130F9F4A4
:101570000115110509F4BECE929596959770953098
:1015800059F46091990470919A0480919B04909110
:101590009C040E940000AECE911105C089E994E040
:1015A0000E940813F6CF60E070E0CB01F2CF8A30E2
:1015B00009F4A0CE8C3109F49DCE82E994E00E941A
:1015C000B30B98CE8A31C9F795CE9F3F09F092CEE2
:1015D0008981833009F58091240282FF04C09A81B9
:1015E000973009F487CE8A81843109F083CE8091C7
:1015F000380228137FCE0E948B03737088279927A7
:101600000E94580325E143E050E06FEF8B2D0E94CC
:10161000F4006091380215CF8091380228136ACE09
:10162000CCCF0F900F900F90DF91CF911F910F9122
:10163000FF90EF90DF90CF90BF90AF909F908F90F2
:1016400008958091240284FD0C945F090895CF923F
:10165000DF92EF92FF92CF93DF93D82F0E948B03FC
:101660006B017C0180919604876080939604C0E0B2
:101670000E948B036C197D098E099F09603D77409C
:101680008105910590F4C11110C0A8950E945D05D7
:101690000E94210B809196048770833049F7C1E046
:1016A000809197048D13E3CFE3CF8C2FDF91CF91FF
:1016B000FF90EF90DF90CF9008958F929F92AF921E
:1016C000BF92CF92DF92EF92FF924B015C010E949A
:1016D0008B036B017C010E948B036C197D098E09C1
:1016E0009F09681579058A059B0530F4A8950E9425
:1016F0005D050E94210BEFCFFF90EF90DF90CF9020
:10170000BF90AF909F908F9008951092190283E53B
:1017100091E00E94DB0660ED77E080E090E00E94BF
:101720005D0B84EC0E94E90660ED77E080E090E0DC
:101730000C945D0B81E08093190285E691E00E9494
:10174000DB0684EC0E94E90660ED77E080E090E043
:101750000E945D0B88EC0E94E90660ED77E080E076
:1017600090E00C945D0BCF93DF93EC018C8184FFB0
:1017700004C086E791E00E94DB068D818432A1F4EB
:101780008FE891E00E94690680911902811132C0B0
:1017900080911602882371F10E949A0B68EE73E023
:1017A00080E090E00E945D0B8D81813079F48E8124
:1017B000823061F48C818295869587708230E9F45D
:1017C0008F81682F8EE991E00E946F148D818111C5
:1017D00026C08E81811123C08C8182958695877069
:1017E0008230A1F48F81682F8DE991E0DF91CF9154
:1017F0000C946F140E94850BD1CF811105C0CE01CE
:1018000007960E94EA12DDCF80E0DBCF811105C090
:10181000CE0107960E94EA12E6CF80E0E4CFDF9186
:10182000CF9108954F925F926F927F928F929F9285
:10183000AF92BF92CF92DF92EF92FF920F931F93DE
:10184000CF93DF9368E873E180E090E00E945D0B46
:101850008EE594E00E94D203882311F18EE594E096
:101860000E9404010E9410152B0164EF71E080E0DA
:1018700090E00E945D0B8EE594E00E94D2038823E5
:1018800051F0809164048B3030F08D3070F08551D0
:10189000823008F448C160E070E080EC9FE721C02E
:1018A00060E070E080EC9FE7DDCF60915F0470E066
:1018B00090E080E00E944E132DEC3CEC4CEC5DE39C
:1018C0000E9489136B017C0160915E0470E090E0DE
:1018D00080E00E944E139B01AC01C701B6010E943B
:1018E000A4140E9410154B018B0164EF71E080E09D
:1018F00090E00E945D0B8BE494E00E94D203882369
:1019000009F423C18BE494E00E9404010E941015A5
:101910006B01EB0164EF71E080E090E00E945D0BF1
:10192000B2018CE094E00E9444050E94D70864EF65
:1019300071E080E090E00E945D0BB4018BEE93E0DB
:101940000E9444050E94D70864EF71E080E090E0B7
:101950000E945D0BB6018AEC93E00E9444050E9450
:10196000D70864EF71E080E090E00E945D0B609129
:10197000190289EA93E00E9451050E94D70864EF9A
:1019800071E080E090E00E945D0B82EA91E00E94AD
:101990006906B601DD0C880B990B97FFDBC00E942E
:1019A000BA068EEA91E00E946906809119028823A6
:1019B00009F4D4C085EB91E00E94DB068EEB91E048
:1019C0000E946906C4010E943A0780ED91E00E94DE
:1019D0006906C2010E943A0780911E018150990B4D
:1019E000C817D9074CF480911902811105C0809164
:1019F000160281110E949A0B80911E0190E00196BF
:101A00008C179D072CF48091190281110E94850B7F
:101A100080911D018150990B0817190764F480917A
:101A20001502882341F08EED91E00E94DB0661E013
:101A300088E00E94940280911D0190E00196801739
:101A4000910744F48AEE91E00E94DB0660E088E0B2
:101A50000E94940200911E0110E0C8010397C8176C
:101A6000D907D4F4809119028823B1F0C0901102F3
:101A7000D0901202E0901302F090140224E6C20EFD
:101A8000D11CE11CF11C0E948B036C157D058E0599
:101A90009F0510F4109219020D5F1F4F0C171D07C0
:101AA000DCF480911902811117C0C0901102D0900E
:101AB0001202E0901302F090140284E6C80ED11CCA
:101AC000E11CF11C0E948B036C157D058E059F05A2
:101AD00018F481E08093190283E480937C00809164
:101AE0007A00806480937A0080917A0086FDFCCF32
:101AF0008091780090917900893E934094F185EF30
:101B000091E0DF91CF911F910F91FF90EF90DF90C7
:101B1000CF90BF90AF909F908F907F906F905F908D
:101B20004F900C94DB0660915E0470915F04762701
:101B30006727762790E080E00E944C132DEC3CEC68
:101B40004CEC5DE30E948913CCCE60E070E080EC49
:101B50009FE7DCCE4AE00E94760623CF89EB91E036
:101B60002BCFDF91CF911F910F91FF90EF90DF90DE
:101B7000CF90BF90AF909F908F907F906F905F902D
:101B80004F9008950F931F93CF93DF930E94CC0043
:101B900062E0809163040E94E0020E948B03605D1A
:101BA000774081099109609367047093680480937A
:101BB000690490936A04C7E3C093700462E0809163
:101BC00050040E94E0020E948B03605D774081090F
:101BD0009109609354047093550480935604909334
:101BE0005704C0935D040E948B03609311027093AD
:101BF0001202809313029093140261E088E00E9425
:101C0000E0028EE08093300210922D0481E08093F8
:101C10002E0461E08DE00E94E00264EF71E080E05C
:101C200090E00E945D0B8EE991E00E945714D82F3E
:101C30008DE991E00E945714C82F8FE991E00E942E
:101C40005714082F80EA91E00E945714182F81EA58
:101C500091E00E94571491E0811101C090E09093AF
:101C6000160282EA91E00E94571491E0811101C0AE
:101C700090E090931502D11106C060911D018EE98C
:101C800091E00E946F14C11106C060911E018DE9A0
:101C900091E00E946F14011105C062E08FE991E0AC
:101CA0000E946F14111105C062E080EA91E00E9469
:101CB0006F14D0931D01C0931E01DF91CF911F912E
:101CC0000F910895CF938091360281FD20C00E942C
:101CD0002A0980913602816080933602C4E02AE1AD
:101CE00043E050E06FEF80E00E94F40062E00E9469
:101CF00051050E94D0088BE10E94270B811102C080
:101D0000C15069F780913602826080933602CF918C
:101D100008958FEF80932602E4E2F2E080818860EC
:101D2000808328E143E050E06FEF80E00E94F40000
:101D300061E00E9451050C949808809137028F3F12
:101D400069F423E043E050E06FEF80E00E94F4008C
:101D50006BE371E00E9468070C9498080895E4E230
:101D6000F2E08081897F81608083E7E3F2E08FEF9A
:101D70008283818327E043E050E06FEF0E94F4000C
:101D80006BE371E00E9468070C949808CF93219A46
:101D9000229A29982A9ACFB7F8948091100281113B
:101DA00027C0E4E2F1E08491E8E3F1E09491E82FC8
:101DB000F0E0EE0FFF1FE851FF4FA591B491EC91B9
:101DC000E92321F461E08AE00E94940261E08AE064
:101DD0000E94E0028CB580618CBD8CB580648CBDA6
:101DE00061E08DE00E94E00261E08BE00E94E00291
:101DF000809110028F5F80931002CFBF29986EE010
:101E000080E20E94DD078BE496E40197F1F763E03E
:101E100083E20E94DD076FE584E20E94DD076CE447
:101E200085E20E94DD0765E286E20E94DD0764E04C
:101E30008DE30E94DD078DE10E941708843041F098
:101E400063E780E50E94DD0764E08DE30E94DD0723
:101E500086E00E941708853209F04DC085E00E9497
:101E600017088C3409F047C062E082E20E94DD0767
:101E700060E081E20E94DD0763E08CE30E94DD0701
:101E80008FEF8093030120E045E063E071E08BE297
:101E90000E949D0720E045E063E071E08AE20E9435
:101EA0009D0720E045E063E071E080E30E949D072C
:101EB00082EE0E941D0881EE0E941D0860E787E205
:101EC0000E94DD078091240280618093240280912A
:101ED0003A028E7F80933A0285E08093370265E074
:101EE00090E080E00E946F14C0913702CF3F41F430
:101EF00089E191E002C089E091E0CF910C947B05EB
:101F00008FEF8C0F8E3FB8F7C093080163E082E239
:101F10000E94DD0761E081E20E94DD070E940A085D
:101F20006C2F90E080E00E946F14E2CF1F920F921E
:101F30000FB60F9211242F933F934F935F936F939C
:101F40007F938F939F93AF93BF93EF93FF938BE315
:101F500092E00E94FB01FF91EF91BF91AF919F91A1
:101F60008F917F916F915F914F913F912F910F9042
:101F70000FBE0F901F9018951F920F920FB60F92E1
:101F800011242F938F939F93EF93FF93E0914B0234
:101F9000F0914C028081E0915102F091520282FD59
:101FA0001BC09081809154028F5F8F7320915502E6
:101FB000821741F0E0915402F0E0E55CFD4F958F0F
:101FC00080935402FF91EF919F918F912F910F90E9
:101FD0000FBE0F901F9018958081F4CF1F920F9223
:101FE0000FB60F9211242F933F938F939F93AF932C
:101FF000BF938091280290912902A0912A02B0916A
:102000002B023091270223E0230F2D3758F501963C
:10201000A11DB11D209327028093280290932902CD
:10202000A0932A02B0932B0280912C0290912D0252
:10203000A0912E02B0912F020196A11DB11D809397
:102040002C0290932D02A0932E02B0932F02BF91E9
:10205000AF919F918F913F912F910F900FBE0F9055
:102060001F90189526E8230F0296A11DB11DD2CF0F
:102070001F920F920FB60F9211242F933F934F93FD
:102080005F936F937F938F939F93AF93BF93EF93E0
:10209000FF93E0912501F09126010995FF91EF91C1
:1020A000BF91AF919F918F917F916F915F914F9170
:1020B0003F912F910F900FBE0F901F9018951F9278
:1020C0000F920FB60F9211242F933F934F935F936C
:1020D0006F937F938F939F93AF93BF93EF93FF93F0
:1020E000E0912301F09124010995FF91EF91BF91B7
:1020F000AF919F918F917F916F915F914F913F91A0
:102100002F910F900FBE0F901F9018951F920F9256
:102110000FB60F9211242F933F934F935F936F93BA
:102120007F938F939F93AF93BF93EF93FF93E09130
:10213000DA02F091DB0290818091DC0298232091F9
:10214000DD023091DE022F3F320731F02F5F3F4F2B
:102150003093DE022093DD028091D802811132C0DB
:10216000911116C02091DD023091DE022536310535
:1021700058F01092DF023093E2022093E10281E0F6
:102180008093E0028093D8021092DE021092DD026A
:1021900080912E04882329F081E0911180E00E9433
:1021A000D604FF91EF91BF91AF919F918F917F9155
:1021B0006F915F914F913F912F910F900FBE0F90B4
:1021C0001F9018958091D8028130A1F4992301F3D2
:1021D000E091E0028E0F8093E002F0E0EE0FFF1F2F
:1021E000E852FD4F2091DD023091DE0232872187D7
:1021F00082E0C8CF8091D802823039F5911119C0A0
:10220000E091E00281E0E43620F08093DF0283E099
:10221000B9CF8E0F8093E002F0E0EE0FFF1FE8527F
:10222000FD4F2091DD023091DE023287218781E06F
:10223000A9CF2091DD023091DE022536310508F468
:10224000A7CF83E08093D802A3CF8091D8028330B8
:1022500009F09ECF992309F497CF9ACF1F920F923E
:102260000FB60F9211240F900FBE0F901F9018956C
:10227000CF93DF93FC0110821182128214821582A7
:102280001682DC0117968AE1ED0119928A95E9F729
:1022900082E08383DF91CF910895CF93EBE3F2E067
:1022A0001382128288EE93E0A0E0B0E084839583ED
:1022B000A683B7838BE291E09183808385EC90E0E5
:1022C0009587848784EC90E09787868780EC90E000
:1022D000918B808B81EC90E0938B828B82EC90E0F1
:1022E000958B848B86EC90E0978B868B118E128E6B
:1022F000138E148E82E994E00E94381181E794E0F5
:102300000E943811AEE5B4E08FE015968C931597D6
:1023100086E116968C931697EDE3F1E0E49117961B
:10232000EC931797E9E2F1E0E4911896EC93189793
:1023300040E85EE360E070E01D964D935D936D9321
:102340007C935097ABE4B4E090E115969C9315977D
:1023500016968C931697EEE3F1E0E4911796EC93C2
:102360001797EAE2F1E0E4911896EC9318971D961E
:102370004D935D936D937C935097A8EDB2E0B0932D
:102380003F04A0933E0411961C921197EEE2F1E0F7
:10239000E4911496EC931497EAE1F1E0E491F0E013
:1023A000EE0FFF1FE05FFE4F8591949113969C9373
:1023B0008E931297EDE2F4E0108211828CE094E0AB
:1023C0000E943811ECE0F4E0C1E0C68315828BEE88
:1023D00093E00E943811EBEEF3E082E08683C58340
:1023E0008AEC93E00E943811EAECF3E01682158241
:1023F00089EA93E00E943811E9EAF3E083E08683FA
:1024000084E28583CF910895789484B5826084BDF9
:1024100084B5816084BD85B5826085BD85B58160E8
:1024200085BD80916E00816080936E001092810066
:102430008091810082608093810080918100816021
:1024400080938100809180008160809380008091E2
:10245000B10084608093B1008091B000816080936E
:10246000B00080917A00846080937A0080917A0035
:10247000826080937A0080917A00816080937A00F4
:1024800080917A00806880937A001092C100A895AC
:1024900080E090E0892B11F00E9400000E94CC00A7
:1024A000C0E1D0E0F12CFE01F595E795E159FF4F31
:1024B000E491C0FF74C0EF70E83008F07FC0F0E036
:1024C000E159FF4FF4906F2D8BE392E00E941D02C3
:1024D0002196C23FD10539F7C8E6D0E0FE016491EC
:1024E000662339F08BE392E00E941D022196892B2E
:1024F000A9F789E391E00E946906809136028D7FF9
:102500008093360280E090E0892B11F00E94000059
:1025100041E050E063E071E085E392E00E944714FF
:102520006FEF81E090E00E946F14809125028F7818
:102530008093250210921B0210921A028FE191E003
:102540000E947B0582E69EE090931802809317021A
:102550000E948B036B017C010E948B036C197D0927
:102560008E099F096037774181059105D0F00E945F
:10257000C20DA895C0E0D0E0A8950E945D058091AD
:10258000240284FD0E945F090E94120C2097A1F38F
:102590000E94F101882381F30E940000EDCFE295B3
:1025A0008ACF0E945D050E94210B8091240282FB4C
:1025B000882780F9A8958111DACFCECF1BEF1E0FA7
:1025C00000E06F2D8BE392E00E941D020F5F011768
:1025D000C0F37ECFFC0188279927E894219120320F
:1025E000E9F3293010F02E30C8F32B3241F02D32B0
:1025F00039F4689404C00E944413820F911D219104
:1026000020532A30C0F31EF4909581959F4F089572
:102610001F93FC0199278827BC01E894119110327F
:10262000E9F3193010F01E30C8F31B3251F01D329F
:1026300049F4689406C00E942F13610F711D811D1B
:10264000911D119110531A30B0F33EF4909580957E
:10265000709561957F4F8F4F9F4F1F910895592F10
:10266000482F372F262F660F771F881F991F660F59
:10267000771F881F991F620F731F841F951F660F96
:10268000771F881F991F08957AE0979F902D879F45
:10269000802D910D11240895E89409C097FB3EF414
:1026A00090958095709561957F4F8F4F9F4F99239F
:1026B000A9F0F92F96E9BB279395F695879577951D
:1026C0006795B795F111F8CFFAF4BB0F11F460FFDD
:1026D0001BC06F5F7F4F8F4F9F4F16C0882311F035
:1026E00096E911C0772321F09EE8872F762F05C049
:1026F000662371F096E8862F70E060E02AF09A95E4
:10270000660F771F881FDAF7880F9695879597F9D8
:1027100008950E949C130C940D140E94FF1338F02E
:102720000E94061420F0952311F00C94F6130C94DB
:10273000FC1311240C9441140E941E1470F3959FF5
:10274000C1F3950F50E0551F629FF001729FBB27A8
:10275000F00DB11D639FAA27F00DB11DAA1F649F44
:102760006627B00DA11D661F829F2227B00DA11DF7
:10277000621F739FB00DA11D621F839FA00D611D7D
:10278000221F749F3327A00D611D231F849F600D9E
:10279000211D822F762F6A2F11249F5750409AF0C7
:1027A000F1F088234AF0EE0FFF1FBB1F661F771F53
:1027B000881F91505040A9F79E3F510580F00C941E
:1027C000F6130C9441145F3FE4F3983ED4F38695DE
:1027D00077956795B795F795E7959F5FC1F7FE2BBE
:1027E000880F911D9695879597F9089597F99F679A
:1027F00080E870E060E008959FEF80EC0895002489
:102800000A941616170618060906089500240A9455
:1028100012161306140605060895092E0394000CDB
:1028200011F4882352F0BB0F40F4BF2B11F460FF6A
:1028300004C06F5F7F4F8F4F9F4F089557FD905893
:10284000440F551F59F05F3F71F04795880F97FB74
:10285000991F61F09F3F79F087950895121613062E
:102860001406551FF2CF4695F1DF08C0161617065D
:102870001806991FF1CF8695710561050894089592
:10288000E894BB2766277727CB0197F90895DC01E9
:10289000CB01FC01F999FECF06C0F2BDE1BDF89A6B
:1028A000319600B40D9241505040B8F70895F9990F
:1028B000FECF92BD81BDF89A992780B50895DC01BD
:1028C000A40FB51F4150504048F0CB01840F951F15
:1028D0002E910E94701441505040D0F70895262F39
:1028E000F999FECF92BD81BDF89A019700B4021606
:1028F00039F01FBA20BD0FB6F894FA9AF99A0FBEB4
:102900000895A1E21A2EAA1BBB1BFD010DC0AA1F30
:10291000BB1FEE1FFF1FA217B307E407F50720F048
:10292000A21BB30BE40BF50B661F771F881F991FC3
:102930001A9469F760957095809590959B01AC010C
:10294000BD01CF0108955058BB27AA270E94BB1490
:102950000C940D140E94FF1338F00E94061420F00E
:1029600039F49F3F19F426F40C94FC130EF4E0950F
:10297000E7FB0C94F613E92F0E941E1458F3BA17C4
:10298000620773078407950720F079F4A6F50C9485
:1029900040140EF4E0950B2EBA2FA02D0B01B901B7
:1029A00090010C01CA01A0011124FF27591B99F0C5
:1029B000593F50F4503E68F11A16F040A22F232FD1
:1029C000342F4427585FF3CF469537952795A79521
:1029D000F0405395C9F77EF41F16BA0B620B730BC8
:1029E000840BBAF09150A1F0FF0FBB1F661F771F39
:1029F000881FC2F70EC0BA0F621F731F841F48F4EE
:102A0000879577956795B795F7959E3F08F0B0CF76
:102A10009395880F08F09927EE0F9795879508955D
:102A20000E9417156894B1110C94411408950E94E6
:102A3000261488F09F5798F0B92F9927B751B0F016
:102A4000E1F0660F771F881F991F1AF0BA95C9F732
:102A500014C0B13091F00E944014B1E008950C947C
:102A60004014672F782F8827B85F39F0B93FCCF32F
:102A7000869577956795B395D9F73EF490958095AF
:102A8000709561957F4F8F4F9F4F0895EE0FFF1FF9
:102A90000590F491E02D0994FB01DC014150504078
:102AA00048F001900D920020C9F701C01D924150DD
:102AB0005040E0F70895F894FFCFFFFFFF00FCE1DE
:102AC000A8A8FFEE07A7059D0E1206890EE305D103
:102AD00005C705AF0E2C062E4A5207C60E97039760
:102AE00003000000001D028701B4016A02E501C372
:102AF00001D7010D0A00322E332E32004C6F676170
:102B00006E277320526F6F6D00312E300054757236
:102B10006E696E67206F666620686561742E00546A
:102B200075726E696E67206F6E20686561742E0025
:102B30005468697320697320616E2061636B20663D
:102B4000726F6D206E6F6465005377697463686996
:102B50006E67206865617420746F2000526F6F6D1E
:102B60002074656D703A2000204865617420004F24
:102B70006E2E004F66662E004F72656F27732048D9
:102B8000756D69646974793A20004F72656F2773B7
:102B90002054656D703A200052656C617920484977
:102BA0004748210052656C6179204C4F57210054F1
:102BB000657374696E6720486561742049522053BB
:0A2BC00069676E616C732E2E2E0003
:107E0000112484B714BE81FFF0D085E080938100F7
:107E100082E08093C00088E18093C10086E0809377
:107E2000C20080E18093C4008EE0C9D0259A86E02C
:107E300020E33CEF91E0309385002093840096BBD3
:107E4000B09BFECF1D9AA8958150A9F7CC24DD24C4
:107E500088248394B5E0AB2EA1E19A2EF3E0BF2EE7
:107E6000A2D0813461F49FD0082FAFD0023811F036
:107E7000013811F484E001C083E08DD089C08234E0
:107E800011F484E103C0853419F485E0A6D080C0E4
:107E9000853579F488D0E82EFF2485D0082F10E0AE
:107EA000102F00270E291F29000F111F8ED06801E7
:107EB0006FC0863521F484E090D080E0DECF843638
:107EC00009F040C070D06FD0082F6DD080E0C81688
:107ED00080E7D80618F4F601B7BEE895C0E0D1E017
:107EE00062D089930C17E1F7F0E0CF16F0E7DF06D8
:107EF00018F0F601B7BEE89568D007B600FCFDCFD4
:107F0000A601A0E0B1E02C9130E011968C91119780
:107F100090E0982F8827822B932B1296FA010C0160
:107F200087BEE89511244E5F5F4FF1E0A038BF0790
:107F300051F7F601A7BEE89507B600FCFDCF97BE46
:107F4000E89526C08437B1F42ED02DD0F82E2BD052
:107F50003CD0F601EF2C8F010F5F1F4F84911BD097
:107F6000EA94F801C1F70894C11CD11CFA94CF0C13
:107F7000D11C0EC0853739F428D08EE10CD085E9AC
:107F80000AD08FE07ACF813511F488E018D01DD067
:107F900080E101D065CF982F8091C00085FFFCCF94
:107FA0009093C60008958091C00087FFFCCF809118
:107FB000C00084FD01C0A8958091C6000895E0E648
:107FC000F0E098E1908380830895EDDF803219F02E
:107FD00088E0F5DFFFCF84E1DECF1F93182FE3DFCA
:107FE0001150E9F7F2DF1F91089580E0E8DFEE27F6
:047FF000FF270994CA
:027FFE00040479
:00000001FF
